:1000000044C05EC05DC0D0C15BC05AC0BEC158C054
:1000100057C056C055C054C053C052C051C050C044
:100020004FC04EC04DC0FBC0FFC0FEC0FDC003C1ED
:1000300006C10BC110C117C121C1FAC265C386C375
:10004000F3C384C319C482C33FC441A042A1E045A5
:10005000A3A4A5A64BA74D484FA8504354A9AA58FE
:10006000E1ABACE2ADAEADAFB0B161B2B3B4E3659C
:10007000B6B7B8B9BABBBCBD6FBE7063BF79E47820
:10008000E5C0C1E6C2C3C4C5C6C711241FBECFE5C3
:10009000D4E0DEBFCDBF10E0A0E6B0E0E6E9F2E1DB
:1000A00002C005900D92AA3EB107D9F711E0AAEE61
:1000B000B0E001C01D92A132B107E1F799D1E9C8C2
:1000C0009FCF90910E01903288F4803C28F0E82F69
:1000D000F0E0E657F0408491882341F0E92FF0E00A
:1000E000E651FF4F80839F5F90930E0180E090E088
:1000F0000895615090E0019724E0880F991F2A9598
:10010000E1F7680F603214F06FEF02C060930E01E8
:10011000862F089580910E010895A8980000000090
:10012000A99A0000000025B3237C25BB25B390E0ED
:100130008F709070880F991F880F991F282B25BBEF
:1001400000000000A998A89A0895A89A000000004D
:10015000A99A0000000025B3237C25BB25B390E0BD
:100160008F709070880F991F880F991F282B25BBBF
:1001700000000000A998A89A08950F931F938091FA
:100180000A018230E1F480910C01E82FF0E0E651A1
:10019000FF4F1081082F0F5F00930C01812F829574
:1001A0008F70D3DF812FD1DF802F90E08F70907020
:1001B000892B19F0003208F46BC083E064C08330EF
:1001C000D9F490910C0192959F7082E080930A017E
:1001D000923030F010920C0110920A0110E805C024
:1001E000913011F410EC01C010E0812F82958F70D6
:1001F00094DF812F92DF4CC0813009F049C080919B
:100200000D01882311F0815036C010910B01E12FB0
:10021000F0E0EA30F105D0F5ED5EFF4F099482E39E
:1002200080930D0181E01CC083E077DF1F5F109396
:100230000B018AE020C082E070DF85E011C082E01F
:100240006CDF88E06ADF86E00BC080E066DF86E076
:1002500064DF87E005C080E060DF8CE05EDF88E07F
:1002600080930B0115C080E058DF81E056DF89E004
:1002700080930B0182E080930D010AC010920B0164
:1002800010920C0182E080930A0102C010920B01CF
:100290001F910F910895EAEEF0E080E2819391E0E2
:1002A000EA30F907D9F78FEE80930E0184B38F639C
:1002B00084BB85B3807C85BB81E080930A0108956F
:1002C00080910A01882319F482E080930A0108953D
:1002D000EAEEF0E080E2819391E0EA30F907D9F7A5
:1002E000089581B3807F81BB82B3807F82BB0895F4
:1002F00080910F0110920F01089520B32F7080910B
:100300006000281729F02093600081E090E027C06A
:10031000809110019091110184319105F8F08431A0
:100320009105C1F4209520FF02C081E003C021FFA8
:1003300004C082E080930F010AC022FF02C083E064
:10034000F9CF23FF02C085E0F5CF10920F0185E1C0
:1003500090E005C033E18838930730F4019690931C
:1003600011018093100108958858934169F4822FF8
:10037000809582FF03C084E080930F0189E893E1B8
:10038000909311018093100108951F920F920FB660
:100390000F9211248F9381E0809312018F910F901F
:1003A0000FBE0F901F9018951F920F920FB60F92CD
:1003B00011242F933F934F935F936F937F938F936A
:1003C0009F93AF93BF93EF93FF93D7DE96DFFF9199
:1003D000EF91BF91AF919F918F917F916F915F91BD
:1003E0004F913F912F910F900FBE0F901F90189536
:1003F00087B3866087BB88B3897F88BB8F9A9798BD
:1004000012E015BD85B5886085BD8CE783BD89B7D1
:10041000806889BF1FBC88E08EBD83E294EF9BBDDE
:100420008ABD8EB582608EBD89B7806189BF33DF9A
:1004300058DF86E190E017D5982F8250873718F45F
:100440009093E10002C01093E10087E190E00BD5AA
:10045000982F8250873718F49093E20003C088E702
:100460008093E20088E190E0FED4982F82508B3395
:1004700018F49093E30003C082E08093E30088B314
:10048000897F88BB8091E100809314018091E30013
:10049000809316018091E20081508093150181E6DE
:1004A00090E060E070E0B4D27894FF24CC24C1EEF8
:1004B000D0E000E0DD24EE2433E7A32E30E0B32EBD
:1004C00028E9822E20E0922E9AEA692E90E0792E79
:1004D0008AE8482E80E0582E1BE7212E10E0312EAE
:1004E000809112018823E1F310921201809113018F
:1004F000813071F580911601882321F0815080931D
:10050000160101C0C29890911401992359F080916D
:10051000E100981719F488B3866088BB91509093D6
:10052000140119C0C19880911501882369F488B31A
:10053000897F88BB8091E100809314018091E30062
:10054000809316018091E20081508093150103C0D1
:1005500088B3897F88BBBCDECBDE182FCC2009F4A2
:100560005EC081E066E0C5DD2091E10000D000D0F2
:1005700000D0EDB7FEB7319681E690E0ADB7BEB7DB
:1005800012969C938E931197822F86958283138265
:1005900030E021703070C901880F991F880F991FB2
:1005A000820F931F958384837ED2ADB7BEB7169614
:1005B0000FB6F894BEBF0FBEADBF82E066E099DD16
:1005C0002091E20000D000D000D0EDB7FEB7319608
:1005D0008AE690E0ADB7BEB712969C938E931197C2
:1005E000822F86958283138230E021703070C9019A
:1005F000880F991F880F991F820F931F95838483FB
:1006000052D2ADB7BEB716960FB6F894BEBF0FBEA6
:10061000ADBF113011F4CC24EAC1CA94E8C1EF2D6A
:10062000F0E0E830F10508F0E2C1E35EFF4F099425
:1006300081E065E05EDD2091E10000D000D000D0D7
:10064000EDB7FEB73196ADB7BEB71296BC92AE927B
:100650001197822F86958283138230E0217030704B
:10066000C901880F991F880F991F820F931F9583C7
:10067000848319D2EDB7FEB736960FB6F894FEBF55
:100680000FBEEDBF82E061E034DD00D0ADB7BEB794
:1006900012963C922E92119706D20F900F9082E004
:1006A0006BE027DD00D083E890E0EDB7FEB79283E2
:1006B0008183F9D10F900F90123019F4FF24F39435
:1006C00096C1113009F48FC1143009F090C18091A6
:1006D0001301882331F481E08093130167E0F62E43
:1006E00086C11092130188B3897F88BB8091E10095
:1006F000809314018091E300809316018091E200C1
:1007000081508093150173C181E061E0F2DC00D07B
:10071000ADB7BEB712965C924E921197C4D10F90AE
:100720000F9082E066E0E5DC00D0EDB7FEB7928284
:100730008182B9D10F900F90123009F058C1009109
:10074000E10052E0F52EC1EED0E091C081E061E021
:10075000D0DC00D0E4EAF0E0ADB7BEB71296FC936F
:10076000EE931197A0D10F900F9082E061E0C1DC71
:1007700000D0E7EAF0E0ADB7BEB71296FC93EE9377
:10078000119791D10F900F9081E064E0B2DC00D01E
:1007900000D000D0EDB7FEB73196ADB7BEB7129618
:1007A000BC92AE921197802F869582831382202F60
:1007B00030E021703070C901880F991F880F991F90
:1007C000820F931F958384836ED1EDB7FEB7369663
:1007D0000FB6F894FEBF0FBEEDBF82E06BE089DC80
:1007E00000D0ADB7BEB712967C926E9211975BD1D6
:1007F0000F900F90113039F40883B6E0FB1609F41E
:10080000F5C0F394F4C0133031F40E1510F00E2D32
:10081000EEC00F5FECC0153009F0E9C0D01610F043
:100820000D2DE5C00150E3C081E061E062DC00D045
:1008300081EB90E0EDB7FEB79283818334D10F90C6
:100840000F9082E066E055DC00D0ADB7BEB71296DF
:100850009C928E92119727D10F900F90123009F031
:10086000C6C00091E200B4E0FB2EC2EED0E0A2E0F0
:10087000DA2EF8E7EF2EBBC081E061E03ADC00D071
:100880008EEB90E0EDB7FEB7928381830CD10F9091
:100890000F9082E066E02DDC00D0ADB7BEB71296B7
:1008A0009C928E921197FFD00F900F90123009F00A
:1008B0009EC00091E300E6E0FE2EC3EED0E072E0C1
:1008C000D72E6CE3E62E93C0809114018823A1F10A
:1008D00081E067E00EDC2091E10080911401281B8B
:1008E00000D000D000D0EDB7FEB73196ADB7BEB79F
:1008F0001296BC92AE921197822F869582831382B4
:1009000030E021703070C901880F991F880F991F3E
:10091000820F931F95838483C6D0EDB7FEB73696BA
:100920000FB6F894FEBF0FBEEDBF82E063E0E1DBDF
:1009300000D0E8ECF0E033C081E067E0DADB209142
:10094000E20080911501281B00D000D000D0EDB747
:10095000FEB73196ADB7BEB71296BC92AE92119764
:10096000822F86958283138230E021703070C90116
:10097000880F991F880F991F820F931F9583848377
:1009800092D0EDB7FEB736960FB6F894FEBF0FBE05
:10099000EDBF82E063E0ADDB00D0E5EDF0E0ADB7A8
:1009A000BEB71296FC93EE9311977DD00F900F90E7
:1009B0001330B9F4809113018130C1F41092130106
:1009C00088B3897F88BB8091E10080931401809176
:1009D000E300809316018091E2008150809315011D
:1009E00005C0113021F48AE0C82E01C0FF2486E141
:1009F00090E06091E1003FD287E190E06091E200F9
:100A00003AD288E190E06091E30035D259DC68CDBC
:100A10000F931F93CF93DF938C01EB01009731F479
:100A20006115710519F420E030E037C081E090E0F5
:100A30006EE070E031D2FC019C01009771F180E81A
:100A40008383209771F0D387C28781E88383809165
:100A5000170190911801892B21F4F0931801E0936C
:100A6000170101151105C9F0118700878381826084
:100A700083838091190190911A01892B71F4F0936D
:100A80001A01E093190180911B0190911C01892B9F
:100A900021F4F0931C01E0931B01C901DF91CF9178
:100AA0001F910F910895A0E0B0E0E8E5F5E0CAC31A
:100AB000FE013596619171918091190190911A0111
:100AC000AF0103D02096E2E0D9C3ABE0B0E0EAE6A4
:100AD000F5E0A8C33C012B015A01FC0117821682E4
:100AE000838181FD03C06FEF7FEFB9C19AE0892E4A
:100AF0001E010894211C311CF3012381F20123FD06
:100B0000859123FF81912F01882309F4A5C18532A6
:100B100039F423FD859123FF81912F01853221F442
:100B200090E0B301F5D2E8CF982FFF24EE2499246A
:100B3000FFE1FF15D0F09B3269F09C3228F490322F
:100B400059F0933291F40EC09D3249F0903369F41C
:100B500041E024C052E0F52A84E0F82A28C098E059
:100B6000F92A25C0E0E1FE2A22C0F7FC29C0892F1E
:100B700080538A3070F4F6FE05C0989C902C1124A6
:100B8000980E15C0E89CE02C1124E80EF0E2FF2A34
:100B90000EC09E3229F4F6FC5FC140E4F42A07C07F
:100BA0009C3619F450E8F52A02C0983649F4F2014F
:100BB00023FD959123FF91912F01992309F0B8CF3F
:100BC000892F8554833018F08052833038F444E004
:100BD00050E0A40EB51E5FE359830FC0933631F089
:100BE000933779F0933509F052C01FC0F501808129
:100BF000898342E050E0A40EB51E610101E010E0DF
:100C000011C0F501C080D180F6FC03C06FEF7FEF0B
:100C100002C0692D70E042E050E0A40EB51EC6018E
:100C20006CD28C015FE7F52213C0F501C080D18042
:100C3000F6FC03C06FEF7FEF02C0692D70E042E069
:100C400050E0A40EB51EC60146D28C0150E8F52A2C
:100C5000F3FE06C018C080E290E0B30159D2EA94D6
:100C60008E2D90E008171907B0F30DC0F601F7FCC0
:100C70008591F7FE81916F0190E0B30149D2E110B7
:100C8000EA94015010400115110581F7E2C0943635
:100C900011F0993661F5F7FE08C0F5012081318128
:100CA0004281538184E090E00AC0F5018081918106
:100CB0009C01442737FD4095542F82E090E0A80E18
:100CC000B91E9FE6F92257FF09C05095409530950F
:100CD00021953F4F4F4F5F4FE0E8FE2ACA01B9010F
:100CE000A1012AE030E040D2D82ED2183FC095377B
:100CF00029F41F2D1F7E2AE030E01DC01F2D197F13
:100D00009F3661F0903720F4983509F0A5C00FC0E8
:100D1000903739F0983709F09FC004C028E030E0E0
:100D20000AC0106114FD146020E130E004C014FD1D
:100D3000166020E132E017FF08C0F5016081718183
:100D40008281938144E050E008C0F5018081918167
:100D5000BC0180E090E042E050E0A40EB51EA1018D
:100D600003D2D82ED2188FE7F82EF122F6FE0BC050
:100D70005EEFF522D91438F4F4FE07C0F2FC05C08A
:100D80008FEEF82202C01D2D01C0192DF4FE0DC0FA
:100D9000FE01ED0DF11D8081803319F499EEF922E9
:100DA00008C01F5FF2FE05C003C08F2D867809F0D2
:100DB0001F5F0F2DF3FC13C0F0FE0EC01E1510F0C8
:100DC0009D2C0AC09D2C9E0C911A1E2D05C080E200
:100DD00090E0B3019DD11F5F1E15C8F304C01E151E
:100DE00010F4E11A01C0EE2404FF0EC080E390E08D
:100DF000B3018ED102FF1BC001FD03C088E790E064
:100E00000EC088E590E00BC0802F867881F001FF4E
:100E100002C08BE201C080E2F7FC8DE290E0B301FA
:100E200077D105C080E390E0B30172D19A94D914D0
:100E3000C8F3DA94F101ED0DF11D808190E0B3016A
:100E400067D1DD20B1F705C080E290E0B30160D149
:100E5000EA94EE20C9F750CEF30166817781CB0189
:100E60002B96E2E1FBC1E199FECF9FBB8EBBE09ADE
:100E700099278DB30895262FE199FECF9FBB8EBB96
:100E8000E09A01970DB2021631F02DBB0FB6F8941F
:100E9000E29AE19A0FBE08950F931F93CF93DF93C9
:100EA000689F8001699F100D789F100D1124C80163
:100EB0000DD0EC01009721F060E070E0A80116D1A0
:100EC000CE01DF91CF911F910F910895CF93DF93C2
:100ED000BC018230910510F462E070E0A0911F0126
:100EE000B0912001ED01E0E0F0E040E050E021C0F1
:100EF000888199818617970769F48A819B81309749
:100F000019F09383828304C09093200180931F0182
:100F1000FE0134C06817790738F44115510519F0FE
:100F20008417950708F4AC01FE018A819B819C011E
:100F3000E9012097E9F641155105A9F1CA01861B7F
:100F4000970B049708F4BA01E0E0F0E02AC08D9115
:100F50009C91119784179507F9F46417750781F42C
:100F600012968D919C911397309719F093838283F9
:100F700004C09093200180931F01FD0132964FC061
:100F8000CA01861B970BFD01E80FF91F619371934E
:100F900002978D939C9343C0FD01828193819C01B4
:100FA000D9011097A1F680911D0190911E01892B06
:100FB00041F48091E6009091E70090931E018093A8
:100FC0001D014091E8005091E9004115510541F49F
:100FD0004DB75EB78091E4009091E500481B590B36
:100FE00020911D0130911E0124173507B0F4CA016C
:100FF000821B930B8617970780F0AB014E5F5F4F04
:101000008417950750F0420F531F50931E014093D1
:101010001D01F9016193719302C0E0E0F0E0CF019E
:10102000DF91CF910895CF93DF93009709F450C0DB
:10103000EC0122971B821A82A0911F01B09120011E
:10104000109709F140E050E0AC17BD0708F1BB83F1
:10105000AA83FE0121913191E20FF31FAE17BF0762
:1010600079F48D919C911197280F391F2E5F3F4F76
:101070003983288312968D919C9113979B838A8341
:101080004115510571F4D0932001C0931F0120C078
:1010900012968D919C911397AD01009711F0DC0190
:1010A000D3CFFA01D383C28321913191E20FF31F91
:1010B000CE17DF0769F488819981280F391F2E5FC9
:1010C0003F4FFA01318320838A819B8193838283FE
:1010D000DF91CF910895FC0105906150704001109F
:1010E000D8F7809590958E0F9F1F0895DC0101C061
:1010F0006D9341505040E0F70895FC0161507040FD
:1011000001900110D8F7809590958E0F9F1F08953C
:101110000F931F93CF93DF938C01EB018B8181FFA2
:101120001BC082FF0DC02E813F818C819D812817BD
:10113000390764F4E881F9810193F983E88306C0F3
:10114000E885F985802F0995892B31F48E819F815F
:1011500001969F838E8302C00FEF1FEFC801DF91BE
:10116000CF911F910F910895FA01AA27283051F1CC
:10117000203181F1E8946F936E7F6E5F7F4F8F4FC8
:101180009F4FAF4FB1E03ED0B4E03CD0670F781F27
:10119000891F9A1FA11D680F791F8A1F911DA11D0C
:1011A0006A0F711D811D911DA11D20D009F4689445
:1011B0003F912AE0269F11243019305D3193DEF6ED
:1011C000CF010895462F4770405D4193B3E00FD0A3
:1011D000C9F7F6CF462F4F70405D4A3318F0495D8E
:1011E00031FD4052419302D0A9F7EACFB4E0A69571
:1011F0009795879577956795BA95C9F70097610593
:10120000710508959B01AC010A2E069457954795E8
:1012100037952795BA95C9F7620F731F841F951FDD
:10122000A01D08952F923F924F925F926F927F92EE
:101230008F929F92AF92BF92CF92DF92EF92FF92E6
:101240000F931F93CF93DF93CDB7DEB7CA1BDB0B92
:101250000FB6F894DEBF0FBECDBF09942A88398837
:1012600048885F846E847D848C849B84AA84B9843E
:10127000C884DF80EE80FD800C811B81AA81B9814A
:10128000CE0FD11D0FB6F894DEBF0FBECDBFED015E
:061290000895F894FFCF61
:101296000F253032642C25645200253032642C250B
:1012A600645000253032642C2564002B205455529E
:1012B600424F004D454E55203E005441494D455242
:1012C600205241424F544100555354414E4F564BC4
:1012D60041203E002B41002D56003C20534F4852E2
:1012E600005441494D455220504155534100544107
:1012F600494D4552204E32005241424F54412053EF
:1013060043484554005041555A412053434845549B
:0A13160000050A0320002101000079
:00000001FF
