:1000000044C05EC05DC0B5C15BC05AC0A3C158C08A
:1000100057C056C055C054C053C052C051C050C044
:100020004FC04EC04DC0FBC0FFC0FEC0FDC003C1ED
:1000300006C10BC110C117C121C13AC381C3A8C3F6
:10004000CBC3F2C3FBC321C444C441A042A1E045D9
:10005000A3A4A5A64BA74D484FA8504354A9AA58FE
:10006000E1ABACE2ADAEADAFB0B161B2B3B4E3659C
:10007000B6B7B8B9BABBBCBD6FBE7063BF79E47820
:10008000E5C0C1E6C2C3C4C5C6C711241FBECFE5C3
:10009000D4E0DEBFCDBF10E0A0E6B0E0E2E4F2E1E4
:1000A00002C005900D92A23FB107D9F711E0A2EF6F
:1000B000B0E001C01D92A832B107E1F7D9D1BFC8A5
:1000C0009FCF90911601903288F4803C28F0E82F61
:1000D000F0E0E657F0408491882341F0E92FF0E00A
:1000E000EE50FF4F80839F5F9093160180E090E079
:1000F0000895615090E0019724E0880F991F2A9598
:10010000E1F7680F603214F06FEF02C060931601E0
:10011000862F0895809116010895A8980000000088
:10012000A99A0000000025B3237C25BB25B390E0ED
:100130008F709070880F991F880F991F282B25BBEF
:1001400000000000A998A89A0895A89A000000004D
:10015000A99A0000000025B3237C25BB25B390E0BD
:100160008F709070880F991F880F991F282B25BBBF
:1001700000000000A998A89A08950F931F938091FA
:1001800012018230E1F480911401E82FF0E0EE508A
:10019000FF4F1081082F0F5F00931401812F82956C
:1001A0008F70D3DF812FD1DF802F90E08F70907020
:1001B000892B19F0003208F46BC083E064C08330EF
:1001C000D9F49091140192959F7082E0809312016E
:1001D000923030F0109214011092120110E805C014
:1001E000913011F410EC01C010E0812F82958F70D6
:1001F00094DF812F92DF4CC0813009F049C080919B
:100200001501882311F0815036C010911301E12FA0
:10021000F0E0EA30F105D0F5ED5EFF4F099482E39E
:100220008093150181E01CC083E077DF1F5F10938E
:1002300013018AE020C082E070DF85E011C082E017
:100240006CDF88E06ADF86E00BC080E066DF86E076
:1002500064DF87E005C080E060DF8CE05EDF88E07F
:100260008093130115C080E058DF81E056DF89E0FC
:100270008093130182E0809315010AC0109213014C
:100280001092140182E08093120102C010921301B7
:100290001F910F910895E2EFF0E080E2819391E0E9
:1002A000E231F907D9F78FEE8093160184B38F639B
:1002B00084BB85B3807C85BB81E080931201089567
:1002C00080911201882319F482E08093120108952D
:1002D000E2EFF0E080E2819391E0E231F907D9F7B3
:1002E000089581B3807F81BB82B3807F82BB0895F4
:1002F0008091170110921701089590B39F7080911B
:100300006000981721F09093600081E005C0809113
:100310001801853020F48F5F80931801089585308F
:10032000C1F4909590FF02C081E003C091FF04C02A
:1003300082E0809317010AC092FF02C083E0F9CFE8
:1003400093FF02C084E0F5CF1092170186E08093FE
:10035000180108951F920F920FB60F9211248F93D8
:1003600081E0809319018F910F900FBE0F901F9025
:1003700018951F920F920FB60F9211242F933F934F
:100380004F935F936F937F938F939F93AF93BF939D
:10039000EF93FF93F2DEB1DFFF91EF91BF91AF9149
:1003A0009F918F917F916F915F914F913F912F918D
:1003B0000F900FBE0F901F90189581E061E099DEBD
:1003C00000D081E690E0ADB7BEB712969C938E93B5
:1003D000119750D30F900F9082E061E08ADE00D039
:1003E00084E690E0EDB7FEB79283818343D30F900C
:1003F0000F9081E064E07DDEE091E900F091EA0099
:10040000208100D000D000D0EDB7FEB7319687E64E
:1004100090E0ADB7BEB712969C938E931197822F42
:1004200086958283138230E021703070C901880F75
:10043000991F880F991F820F931F958384831AD366
:10044000EDB7FEB736960FB6F894FEBF0FBEEDBF00
:1004500082E06BE04EDE00D08FE690E0ADB7BEB735
:1004600012969C938E93119705D30F900F90089539
:1004700087B3866087BB88B3897F88BB8F9A97983C
:1004800012E015BD85B5886085BD8CE783BD89B751
:10049000806889BF1FBC88E08EBD83E294EF9BBD5E
:1004A0008ABD8EB582608EBD89B7806189BFF3DE5B
:1004B00018DF8091E1009091E200BCD4982F825027
:1004C000873718F49093E70002C01093E7008091FB
:1004D000E3009091E400AED4982F8250873718F44F
:1004E0009093E80003C088E78093E8008091E500DE
:1004F0009091E6009FD4982F82508B3318F49093FC
:10050000EB0003C082E08093EB0088B3897F88BB57
:100510008091E70080931B018091EB0080931D0187
:100520008091E800815080931C0181E690E060E0BA
:1005300070E055D2789400E0FF24EE2417E6C12E37
:1005400010E0D12EC5EAD0E0BBEE2B2EB0E03B2E62
:10055000A8E8AA2EA0E0BA2EF0E98F2EF0E09F2E98
:10056000E6E76E2EE0E07E2E7FE7472E70E0572E06
:10057000809119018823E1F380911A01813071F58E
:1005800080911D01882321F0815080931D0101C0BD
:10059000C29890911B01992359F08091E700981718
:1005A00019F488B3866088BB915090931B0119C0E1
:1005B000C19880911C01882369F488B3897F88BB26
:1005C0008091E70080931B018091EB0080931D01D7
:1005D0008091E800815080931C0103C088B3897F1B
:1005E00088BB1092190174DE83DE182FEE2009F407
:1005F0005AC081E066E07DDD2091E70000D000D0A8
:1006000000D0EDB7FEB73196ADB7BEB712967C926B
:100610006E921197822F86958283138230E021702B
:100620003070C901880F991F880F991F820F931F7F
:10063000958384831FD2EDB7FEB736960FB6F89434
:10064000FEBF0FBEEDBF82E066E053DD2091E80003
:1006500000D000D000D0EDB7FEB73196ADB7BEB731
:1006600012965C924E921197822F86958283138206
:1006700030E021703070C901880F991F880F991FD1
:10068000820F931F95838483F5D1EDB7FEB736961D
:100690000FB6F894FEBF0FBEEDBF113011F4EE247B
:1006A0009CC1EA949AC1EF2DF0E0E35EFF4F0994FC
:1006B00081E065E01EDD2091E70000D000D000D091
:1006C000EDB7FEB73196ADB7BEB71296DC92CE92BB
:1006D0001197822F86958283138230E021703070CB
:1006E000C901880F991F880F991F820F931F958347
:1006F0008483C0D1EDB7FEB736960FB6F894FEBF2F
:100700000FBEEDBF82E061E0F4DC00D0ADB7BEB754
:100710001296BC92AE921197ADD10F900F9082E0DD
:100720006BE0E7DC00D0EDB7FEB792828182A2D108
:100730000F900F90123009F04CC1FF24F3944DC17B
:1007400081E061E0D6DC00D0E7E9F0E0ADB7BEB70C
:100750001296FC93EE9311978DD10F900F9082E03B
:1007600066E0C7DC00D0ADB7BEB71296DC93CE937F
:10077000119780D10F900F90123009F02EC1E7EE43
:10078000F0E0F093EA00E093E90082E0F82E25C162
:1007900014DE113019F413E0F12E12C0133039F4C5
:1007A000E091E900F091EA0080818F5F08C0143089
:1007B00039F4E091E900F091EA0080818150808372
:1007C000E091E900F091EA008081893718F48230E5
:1007D00008F003C182E07BC081E061E08ADC00D0E8
:1007E000E1EBF0E0ADB7BEB71296FC93EE93119734
:1007F00041D10F900F9082E066E07BDC00D0ADB776
:10080000BEB71296DC93CE93119734D10F900F9010
:10081000123009F0E2C0E8EEF0E0F093EA00E09375
:10082000E900B4E0FB2ED9C0C8DD113019F4A5E011
:10083000FA2ED3C0133009F041C039C081E061E025
:1008400058DC00D0EEEBF0E0ADB7BEB71296FC93EB
:10085000EE9311970FD10F900F9082E066E049DC84
:1008600000D0ADB7BEB71296DC93CE93119702D1EC
:100870000F900F90123009F0B0C03092EA00209231
:10088000E90000E0F6E0FF2EA8C097DD113011F47A
:1008900001E0A3C0133091F4013049F480911A01B2
:1008A000882311F400931A01E7E0FE2E96C0E09130
:1008B000E900F091EA0080818F5F09C0143009F0EF
:1008C0008CC0E091E900F091EA0080818150808342
:1008D00084C080911B018823A9F181E067E009DCD5
:1008E0000091E70080911B01081B00D000D000D0D0
:1008F000EDB7FEB73196ADB7BEB71296DC92CE9289
:100900001197802F869582831382202F30E02170EB
:100910003070C901880F991F880F991F820F931F8C
:1009200095838483A7D0EDB7FEB736960FB6F894BB
:10093000FEBF0FBEEDBF82E063E0DBDB00D0E8EC82
:10094000F0E034C081E067E0D4DB0091E800809102
:100950001C01081B00D000D000D0EDB7FEB73196C7
:10096000ADB7BEB71296DC92CE921197802F8695C6
:1009700082831382202F30E021703070C901880FEC
:10098000991F880F991F820F931F9583848372D0BC
:10099000EDB7FEB736960FB6F894FEBF0FBEEDBFAB
:1009A00082E063E0A6DB00D0E5EDF0E0ADB7BEB7D6
:1009B0001296FC93EE9311975DD00F900F90133029
:1009C00041F480911A01813011F410921A01FF2430
:1009D00004C0113011F45AE0E52E72DCC9CD0F933A
:1009E0001F93CF93DF938C01EB01009731F46115D6
:1009F000710519F420E030E037C081E090E06EE04E
:100A000070E020D2FC019C01009771F180E88383A3
:100A1000209771F0D387C28781E8838380911E017C
:100A200090911F01892B21F4F0931F01E0931E0187
:100A300001151105C9F011870087838182608383C6
:100A40008091200190912101892B71F4F093210173
:100A5000E09320018091220190912301892B21F4C0
:100A6000F0932301E0932201C901DF91CF911F91FF
:100A70000F910895A0E0B0E0EFE3F5E0B9C3FE0107
:100A80003596619171918091200190912101AF0182
:100A900003D02096E2E0C8C3ABE0B0E0E1E5F5E0CA
:100AA00097C33C012B015A01FC01178216828381F6
:100AB00081FD03C06FEF7FEFB9C19AE0892E1E015F
:100AC0000894211C311CF3012381F20123FD85913F
:100AD00023FF81912F01882309F4A5C1853239F4C0
:100AE00023FD859123FF81912F01853221F490E030
:100AF000B301E4D2E8CF982FFF24EE249924FFE13C
:100B0000FF15D0F09B3269F09C3228F4903259F0F6
:100B1000933291F40EC09D3249F0903369F441E074
:100B200024C052E0F52A84E0F82A28C098E0F92A87
:100B300025C0E0E1FE2A22C0F7FC29C0892F80539E
:100B40008A3070F4F6FE05C0989C902C1124980E03
:100B500015C0E89CE02C1124E80EF0E2FF2A0EC03C
:100B60009E3229F4F6FC5FC140E4F42A07C09C36AB
:100B700019F450E8F52A02C0983649F4F20123FD31
:100B8000959123FF91912F01992309F0B8CF892FD7
:100B90008554833018F08052833038F444E050E0BC
:100BA000A40EB51E5FE359830FC0933631F093371F
:100BB00079F0933509F052C01FC0F5018081898317
:100BC00042E050E0A40EB51E610101E010E011C04A
:100BD000F501C080D180F6FC03C06FEF7FEF02C04B
:100BE000692D70E042E050E0A40EB51EC6015BD254
:100BF0008C015FE7F52213C0F501C080D180F6FCBF
:100C000003C06FEF7FEF02C0692D70E042E050E05B
:100C1000A40EB51EC60135D28C0150E8F52AF3FEAC
:100C200006C018C080E290E0B30148D2EA948E2D4D
:100C300090E008171907B0F30DC0F601F7FC859195
:100C4000F7FE81916F0190E0B30138D2E110EA9490
:100C5000015010400115110581F7E2C0943611F0E2
:100C6000993661F5F7FE08C0F50120813181428196
:100C7000538184E090E00AC0F501808191819C015C
:100C8000442737FD4095542F82E090E0A80EB91E0E
:100C90009FE6F92257FF09C0509540953095219560
:100CA0003F4F4F4F5F4FE0E8FE2ACA01B901A10153
:100CB0002AE030E02FD2D82ED2183FC0953729F441
:100CC0001F2D1F7E2AE030E01DC01F2D197F9F368B
:100CD00061F0903720F4983509F0A5C00FC0903727
:100CE00039F0983709F09FC004C028E030E00AC00E
:100CF000106114FD146020E130E004C014FD1660A2
:100D000020E132E017FF08C0F50160817181828126
:100D1000938144E050E008C0F50180819181BC01DD
:100D200080E090E042E050E0A40EB51EA101F2D1B7
:100D3000D82ED2188FE7F82EF122F6FE0BC05EEF08
:100D4000F522D91438F4F4FE07C0F2FC05C08FEE8A
:100D5000F82202C01D2D01C0192DF4FE0DC0FE01A8
:100D6000ED0DF11D8081803319F499EEF92208C050
:100D70001F5FF2FE05C003C08F2D867809F01F5F4C
:100D80000F2DF3FC13C0F0FE0EC01E1510F09D2CAD
:100D90000AC09D2C9E0C911A1E2D05C080E290E089
:100DA000B3018CD11F5F1E15C8F304C01E1510F4CB
:100DB000E11A01C0EE2404FF0EC080E390E0B3010D
:100DC0007DD102FF1BC001FD03C088E790E00EC08B
:100DD00088E590E00BC0802F867881F001FF02C08B
:100DE0008BE201C080E2F7FC8DE290E0B30166D1B6
:100DF00005C080E390E0B30161D19A94D914C8F39F
:100E0000DA94F101ED0DF11D808190E0B30156D12E
:100E1000DD20B1F705C080E290E0B3014FD1EA9444
:100E2000EE20C9F750CEF30166817781CB012B9676
:100E3000E2E1EAC1E199FECF9FBB8EBBE09A992720
:100E40008DB308950F931F93CF93DF93689F800115
:100E5000699F100D789F100D1124C8010DD0EC0171
:100E6000009721F060E070E0A80116D1CE01DF917B
:100E7000CF911F910F910895CF93DF93BC018230E2
:100E8000910510F462E070E0A0912601B091270175
:100E9000ED01E0E0F0E040E050E021C08881998180
:100EA0008617970769F48A819B81309719F093839D
:100EB000828304C09093270180932601FE0134C0F1
:100EC0006817790738F44115510519F0841795070B
:100ED00008F4AC01FE018A819B819C01E901209705
:100EE000E9F641155105A9F1CA01861B970B049734
:100EF00008F4BA01E0E0F0E02AC08D919C911197CE
:100F000084179507F9F46417750781F412968D918B
:100F10009C911397309719F09383828304C0909328
:100F2000270180932601FD0132964FC0CA01861B1E
:100F3000970BFD01E80FF91F6193719302978D9351
:100F40009C9343C0FD01828193819C01D90110973C
:100F5000A1F68091240190912501892B41F4809183
:100F6000EE009091EF009093250180932401409131
:100F7000F0005091F1004115510541F44DB75EB7B5
:100F80008091EC009091ED00481B590B20912401B9
:100F90003091250124173507B0F4CA01821B930B49
:100FA0008617970780F0AB014E5F5F4F8417950758
:100FB00050F0420F531F5093250140932401F90133
:100FC0006193719302C0E0E0F0E0CF01DF91CF9137
:100FD0000895CF93DF93009709F450C0EC01229756
:100FE0001B821A82A0912601B0912701109709F166
:100FF00040E050E0AC17BD0708F1BB83AA83FE01B7
:1010000021913191E20FF31FAE17BF0779F48D9153
:101010009C911197280F391F2E5F3F4F39832883EA
:1010200012968D919C9113979B838A83411551054C
:1010300071F4D0932701C093260120C012968D91A0
:101040009C911397AD01009711F0DC01D3CFFA0109
:10105000D383C28321913191E20FF31FCE17DF07B3
:1010600069F488819981280F391F2E5F3F4FFA015B
:10107000318320838A819B8193838283DF91CF9107
:101080000895FC010590615070400110D8F78095DB
:1010900090958E0F9F1F0895DC0101C06D93415004
:1010A0005040E0F70895FC0161507040019001103C
:1010B000D8F7809590958E0F9F1F08950F931F93DB
:1010C000CF93DF938C01EB018B8181FF1BC082FFEB
:1010D0000DC02E813F818C819D812817390764F4D2
:1010E000E881F9810193F983E88306C0E885F985F1
:1010F000802F0995892B31F48E819F8101969F83E2
:101100008E8302C00FEF1FEFC801DF91CF911F91B7
:101110000F910895FA01AA27283051F1203181F169
:10112000E8946F936E7F6E5F7F4F8F4F9F4FAF4FEF
:10113000B1E03ED0B4E03CD0670F781F891F9A1F02
:10114000A11D680F791F8A1F911DA11D6A0F711DB6
:10115000811D911DA11D20D009F468943F912AE0C2
:10116000269F11243019305D3193DEF6CF010895AA
:10117000462F4770405D4193B3E00FD0C9F7F6CFDB
:10118000462F4F70405D4A3318F0495D31FD4052A3
:10119000419302D0A9F7EACFB4E0A6959795879539
:1011A00077956795BA95C9F7009761057105089518
:1011B0009B01AC010A2E06945795479537952795C4
:1011C000BA95C9F7620F731F841F951FA01D08955C
:1011D0002F923F924F925F926F927F928F929F9247
:1011E000AF92BF92CF92DF92EF92FF920F931F9335
:1011F000CF93DF93CDB7DEB7CA1BDB0B0FB6F894E6
:10120000DEBF0FBECDBF09942A88398848885F8425
:101210006E847D848C849B84AA84B984C884DF8096
:10122000EE80FD800C811B81AA81B981CE0FD11D7A
:101230000FB6F894DEBF0FBECDBFED010895F89450
:02124000FFCFDE
:101242000F2B41002D5600253032642C2564003CC2
:1012520020534F485200253032642C256452002519
:101262003032642C256450002B20545552424F00DA
:101272004D454E55203E005441494D455220524164
:10128200424F544100555354414E4F564B41203E1C
:10129200005441494D45522050415553410054415B
:1012A200494D4552204E32005241424F5441205343
:1012B20043484554005041555A41205343484554F0
:1012C20000160017001800050AE700032000280195
:0212D20000001A
:00000001FF
