:1000000045C05FC05EC0B6C15CC05BC0A4C159C082
:1000100058C057C056C055C054C053C052C051C03C
:1000200050C04FC04EC0FCC000C1FFC0FEC004C1E4
:1000300007C10CC111C118C122C1D1C21AC33BC32F
:100040005EC383C38CC3B2C3D4C359C441A042A10D
:10005000E045A3A4A5A64BA74D484FA8504354A9DB
:10006000AA58E1ABACE2ADAEADAFB0B161B2B3B4E2
:10007000E365B6B7B8B9BABBBCBD6FBE7063BF7934
:10008000E478E5C0C1E6C2C3C4C5C6C711241FBE1B
:10009000CFE5D4E0DEBFCDBF11E0A0E6B0E0E6E002
:1000A000F2E102C005900D92A630B107D9F711E038
:1000B000A6E0B1E001C01D92AC33B107E1F7D9D1A0
:1000C000A0C89ECF90912A01903288F4803C28F0FD
:1000D000E82FF0E0E457F0408491882341F0E92FC5
:1000E000F0E0EA5FFE4F80839F5F90932A0180E0FB
:1000F00090E00895615090E0019724E0880F991FE7
:100100002A95E1F7680F603214F06FEF02C0609338
:100110002A01862F089580912A010895A898000049
:100120000000A99A0000000025B3237C25BB25B35D
:1001300090E08F709070880F991F880F991F282B5F
:1001400025BB00000000A998A89A0895A89A00006D
:100150000000A99A0000000025B3237C25BB25B32D
:1001600090E08F709070880F991F880F991F282B2F
:1001700025BB00000000A998A89A08950F931F932B
:10018000809126018230E1F480912801E82FF0E08F
:10019000EA5FFE4F1081082F0F5F00932801812F27
:1001A00082958F70D3DF812FD1DF802F90E08F7009
:1001B0009070892B19F0003208F46BC083E064C0A2
:1001C0008330D9F49091280192959F7082E08093BA
:1001D0002601923030F0109228011092260110E88A
:1001E00005C0913011F410EC01C010E0812F829510
:1001F0008F7094DF812F92DF4CC0813009F049C0AD
:1002000080912901882311F0815036C01091270177
:10021000E12FF0E0EA30F105D0F5ED5EFF4F0994F3
:1002200082E38093290181E01CC083E077DF1F5FB8
:10023000109327018AE020C082E070DF85E011C0C2
:1002400082E06CDF88E06ADF86E00BC080E066DF7A
:1002500086E064DF87E005C080E060DF8CE05EDF81
:1002600088E08093270115C080E058DF81E056DFE9
:1002700089E08093270182E0809329010AC01092CF
:1002800027011092280182E08093260102C010927B
:1002900027011F910F910895E6E0F1E080E281933C
:1002A00091E0E632F907D9F78FEE80932A0184B303
:1002B0008F6384BB85B3807C85BB81E080932601FE
:1002C000089580912601882319F482E08093260105
:1002D0000895E6E0F1E080E2819391E0E632F907EB
:1002E000D9F7089581B3807F81BB82B3807F82BBC1
:1002F000089580912B0110922B01089590B39F7067
:1003000080916000981721F09093600081E005C013
:1003100080912C01853020F48F5F80932C0108950B
:100320008530C1F4909590FF02C081E003C091FF39
:1003300004C082E080932B010AC092FF02C083E0D8
:10034000F9CF93FF02C084E0F5CF10922B0186E035
:1003500080932C0108951F920F920FB60F921124D3
:100360008F9381E080932D018F910F900FBE0F909E
:100370001F9018951F920F920FB60F9211242F9372
:100380003F934F935F936F937F938F939F93AF931D
:10039000BF93EF93FF93F2DEB1DFFF91EF91BF9137
:1003A000AF919F918F917F916F915F914F913F910D
:1003B0002F910F900FBE0F901F90189581E061E074
:1003C00099DE00D081E690E0ADB7BEB712969C935F
:1003D0008E93119739D30F900F9082E061E08ADEFF
:1003E00000D084E690E0EDB7FEB7928381832CD3F2
:1003F0000F900F9081E064E07DDEE091FB00F091D2
:10040000FC00208100D000D000D0EDB7FEB73196BF
:1004100087E690E0ADB7BEB712969C938E93119786
:10042000822F86958283138230E021703070C9015B
:10043000880F991F880F991F820F931F95838483BC
:1004400003D3EDB7FEB736960FB6F894FEBF0FBED6
:10045000EDBF82E06BE04EDE00D08FE690E0ADB7FE
:10046000BEB712969C938E931197EED20F900F9079
:10047000089587B3866087BB88B3897F88BB8F9ACE
:10048000979882E085BD85B5886085BD8CE783BD82
:1004900089B7806889BF1FBC88E08EBD83E294EF76
:1004A0009BBD8ABD8EB582608EBD89B7806189BFD4
:1004B000F3DE18DF88B3897F88BB8091FA008093D0
:1004C0002F018091FE00809331018091FD008150C9
:1004D0008093300182E690E060E070E06AD281E0D3
:1004E00061E008DE00D086E790E0ADB7BEB71296B7
:1004F0009C938E931197A8D20F900F9082E061E0A9
:10050000F9DD00D087E890E0EDB7FEB792838183F4
:100510009BD2789400E0FF240F900F90A1EFAA2EB9
:10052000A0E0BA2EF7E6CF2EF0E0DF2EC5EBD0E04C
:10053000EDEF8E2EE0E09E2E77EA672E70E0772EAC
:100540006AEF462E60E0562E58E9252E50E0352EF3
:1005500080912D018823E1F380912E01813071F586
:1005600080913101882321F081508093310101C0B5
:10057000C29890912F01992359F08091FA00981711
:1005800019F488B3866088BB915090932F0119C0ED
:10059000C19880913001882369F488B3897F88BB32
:1005A0008091FA0080932F018091FE0080933101A9
:1005B0008091FD0081508093300103C088B3897F12
:1005C00088BB10922D0185DE94DE182FEF2DF0E010
:1005D000E930F10508F0EBC1E35EFF4F099481E0DB
:1005E00065E088DD2091FA0000D000D000D0EDB7A2
:1005F000FEB73196ADB7BEB71296DC92CE92119788
:10060000822F86958283138230E021703070C90179
:10061000880F991F880F991F820F931F95838483DA
:1006200013D2EDB7FEB736960FB6F894FEBF0FBEE5
:10063000EDBF82E061E05EDD00D0ADB7BEB71296DF
:100640003C922E92119700D20F900F9082E06BE0B7
:1006500051DD00D080EA90E0EDB7FEB79283818350
:10066000F3D10F900F90123009F0A1C1FF24F39441
:100670009EC181E061E03EDD00D0ADB7BEB712960D
:100680007C926E921197E0D10F900F9082E066E01D
:1006900031DD00D0EDB7FEB7D283C183D5D10F9045
:1006A0000F90123009F083C15092FC004092FB0081
:1006B00032E0F32E7CC182DE113019F423E0F22EF9
:1006C00012C0133039F4E091FB00F091FC008081FE
:1006D0008F5F08C0143039F4E091FB00F091FC000A
:1006E000808181508083E091FB00F091FC0080814B
:1006F000893718F4823008F05AC182E078C081E06E
:1007000061E0F8DC00D0E1ECF0E0ADB7BEB71296E6
:10071000FC93EE93119798D10F900F9082E066E0D2
:10072000E9DC00D0ADB7BEB71296DC93CE9311973B
:100730008BD10F900F90123009F039C19092FC00CC
:100740008092FB0094E0F92E32C138DE113019F4AA
:1007500085E0F82E2CC1133009F040C038C081E08C
:1007600061E0C8DC00D08EEC90E0EDB7FEB792837C
:1007700081836AD10F900F9082E066E0BBDC00D0ED
:10078000ADB7BEB71296DC93CE9311975DD10F90A3
:100790000F90123009F00BC1EEEFF0E0F093FC0087
:1007A000E093FB0000E016E0F12E01C107DE1130FE
:1007B00011F401E0FCC0133089F4013041F4809160
:1007C0002E01882309F0F1C000932E01EEC0E091C4
:1007D000FB00F091FC0080818F5F09C0143009F0AC
:1007E000E6C0E091FB00F091FC00808181508083A5
:1007F000DEC080912F018823A9F181E067E07ADCD7
:100800000091FA0080912F01081B00D000D000D089
:10081000EDB7FEB73196ADB7BEB71296DC92CE9269
:100820001197802F869582831382202F30E02170CC
:100830003070C901880F991F880F991F820F931F6D
:100840009583848301D1EDB7FEB736960FB6F89441
:10085000FEBF0FBEEDBF82E063E04CDC00D0E8EDF0
:10086000F0E034C081E067E045DC0091FD0080915C
:100870003001081B00D000D000D0EDB7FEB7319694
:10088000ADB7BEB71296DC92CE921197802F8695A7
:1008900082831382202F30E021703070C901880FCD
:1008A000991F880F991F820F931F95838483CCD043
:1008B000EDB7FEB736960FB6F894FEBF0FBEEDBF8C
:1008C00082E063E017DC00D0E5EEF0E0ADB7BEB744
:1008D0001296FC93EE931197B7D00F900F901130B2
:1008E00019F4E8E0FE2E63C0133009F060C0809177
:1008F0002E01813011F410922E01FF2458C081E0A6
:1009000066E0F8DB2091FA0000D000D000D0EDB70F
:10091000FEB73196ADB7BEB71296BC92AE921197A4
:10092000822F86958283138230E021703070C90156
:10093000880F991F880F991F820F931F95838483B7
:1009400083D0EDB7FEB736960FB6F894FEBF0FBE54
:10095000EDBF82E066E0CEDB2091FD0000D000D04C
:1009600000D0EDB7FEB73196ADB7BEB71296BC92C8
:10097000AE921197822F86958283138230E0217088
:100980003070C901880F991F880F991F820F931F1C
:100990009583848359D0EDB7FEB736960FB6F89499
:1009A000FEBF0FBEEDBF113011F457E0F52E89DC0C
:1009B000CFCD0F931F93CF93DF938C01EB01009763
:1009C00031F46115710519F420E030E037C081E0A1
:1009D00090E06EE070E018D2FC019C01009771F18C
:1009E00080E88383209771F0D387C28781E883836F
:1009F0008091320190913301892B21F4F0933301DE
:100A0000E093320101151105C9F011870087838138
:100A1000826083838091340190913501892B71F438
:100A2000F0933501E09334018091360190913701C4
:100A3000892B21F4F0933701E0933601C901DF914E
:100A4000CF911F910F910895A0E0B0E0E9E2F5E0A9
:100A5000B1C3FE01359661917191809134019091FD
:100A60003501AF0103D02096E2E0C0C3ABE0B0E0B7
:100A7000EBE3F5E08FC33C012B015A01FC01178227
:100A80001682838181FD03C06FEF7FEFB9C19AE0C9
:100A9000892E1E010894211C311CF3012381F201CF
:100AA00023FD859123FF81912F01882309F4A5C19E
:100AB000853239F423FD859123FF81912F01853201
:100AC00021F490E0B301DCD2E8CF982FFF24EE248C
:100AD0009924FFE1FF15D0F09B3269F09C3228F495
:100AE000903259F0933291F40EC09D3249F0903318
:100AF00069F441E024C052E0F52A84E0F82A28C0D5
:100B000098E0F92A25C0E0E1FE2A22C0F7FC29C0BE
:100B1000892F80538A3070F4F6FE05C0989C902C83
:100B20001124980E15C0E89CE02C1124E80EF0E288
:100B3000FF2A0EC09E3229F4F6FC5FC140E4F42A7D
:100B400007C09C3619F450E8F52A02C0983649F4DB
:100B5000F20123FD959123FF91912F01992309F033
:100B6000B8CF892F8554833018F08052833038F401
:100B700044E050E0A40EB51E5FE359830FC09336E6
:100B800031F0933779F0933509F052C01FC0F50169
:100B90008081898342E050E0A40EB51E610101E02E
:100BA00010E011C0F501C080D180F6FC03C06FEFEA
:100BB0007FEF02C0692D70E042E050E0A40EB51E48
:100BC000C60153D28C015FE7F52213C0F501C08046
:100BD000D180F6FC03C06FEF7FEF02C0692D70E09B
:100BE00042E050E0A40EB51EC6012DD28C0150E8A3
:100BF000F52AF3FE06C018C080E290E0B30140D2AF
:100C0000EA948E2D90E008171907B0F30DC0F60195
:100C1000F7FC8591F7FE81916F0190E0B30130D22E
:100C2000E110EA94015010400115110581F7E2C06E
:100C3000943611F0993661F5F7FE08C0F501208170
:100C400031814281538184E090E00AC0F5018081C6
:100C500091819C01442737FD4095542F82E090E01C
:100C6000A80EB91E9FE6F92257FF09C0509540957E
:100C7000309521953F4F4F4F5F4FE0E8FE2ACA0164
:100C8000B901A1012AE030E027D2D82ED2183FC006
:100C9000953729F41F2D1F7E2AE030E01DC01F2D3F
:100CA000197F9F3661F0903720F4983509F0A5C080
:100CB0000FC0903739F0983709F09FC004C028E082
:100CC00030E00AC0106114FD146020E130E004C07F
:100CD00014FD166020E132E017FF08C0F5016081C5
:100CE00071818281938144E050E008C0F5018081E8
:100CF0009181BC0180E090E042E050E0A40EB51E7E
:100D0000A101EAD1D82ED2188FE7F82EF122F6FEF3
:100D10000BC05EEFF522D91438F4F4FE07C0F2FCE4
:100D200005C08FEEF82202C01D2D01C0192DF4FE62
:100D30000DC0FE01ED0DF11D8081803319F499EE97
:100D4000F92208C01F5FF2FE05C003C08F2D867810
:100D500009F01F5F0F2DF3FC13C0F0FE0EC01E152F
:100D600010F09D2C0AC09D2C9E0C911A1E2D05C0C2
:100D700080E290E0B30184D11F5F1E15C8F304C068
:100D80001E1510F4E11A01C0EE2404FF0EC080E32A
:100D900090E0B30175D102FF1BC001FD03C088E7DD
:100DA00090E00EC088E590E00BC0802F867881F03F
:100DB00001FF02C08BE201C080E2F7FC8DE290E00F
:100DC000B3015ED105C080E390E0B30159D19A949C
:100DD000D914C8F3DA94F101ED0DF11D808190E092
:100DE000B3014ED1DD20B1F705C080E290E0B30140
:100DF00047D1EA94EE20C9F750CEF301668177819E
:100E0000CB012B96E2E1E2C10F931F93CF93DF93C7
:100E1000689F8001699F100D789F100D1124C801F3
:100E20000DD0EC01009721F060E070E0A80116D130
:100E3000CE01DF91CF911F910F910895CF93DF9352
:100E4000BC018230910510F462E070E0A0913A019B
:100E5000B0913B01ED01E0E0F0E040E050E021C066
:100E6000888199818617970769F48A819B813097D9
:100E700019F09383828304C090933B0180933A01DD
:100E8000FE0134C06817790738F44115510519F08F
:100E90008417950708F4AC01FE018A819B819C01AF
:100EA000E9012097E9F641155105A9F1CA01861B10
:100EB000970B049708F4BA01E0E0F0E02AC08D91A6
:100EC0009C91119784179507F9F46417750781F4BD
:100ED00012968D919C911397309719F0938382838A
:100EE00004C090933B0180933A01FD0132964FC0BC
:100EF000CA01861B970BFD01E80FF91F61937193DF
:100F000002978D939C9343C0FD01828193819C0144
:100F1000D9011097A1F68091380190913901892B60
:100F200041F48091010190910201909339018093E5
:100F3000380140910301509104014115510541F4DC
:100F40004DB75EB78091FF0090910001481B590B8F
:100F5000209138013091390124173507B0F4CA01C6
:100F6000821B930B8617970780F0AB014E5F5F4F94
:100F70008417950750F0420F531F50933901409347
:100F80003801F9016193719302C0E0E0F0E0CF0114
:100F9000DF91CF910895CF93DF93009709F450C06C
:100FA000EC0122971B821A82A0913A01B0913B0179
:100FB000109709F140E050E0AC17BD0708F1BB8382
:100FC000AA83FE0121913191E20FF31FAE17BF07F3
:100FD00079F48D919C911197280F391F2E5F3F4F07
:100FE0003983288312968D919C9113979B838A83D2
:100FF0004115510571F4D0933B01C0933A0120C0D3
:1010000012968D919C911397AD01009711F0DC0120
:10101000D3CFFA01D383C28321913191E20FF31F21
:10102000CE17DF0769F488819981280F391F2E5F59
:101030003F4FFA01318320838A819B81938382838E
:10104000DF91CF910895FC0105906150704001102F
:10105000D8F7809590958E0F9F1F0895DC0101C0F1
:101060006D9341505040E0F70895FC01615070408D
:1010700001900110D8F7809590958E0F9F1F0895CD
:101080000F931F93CF93DF938C01EB018B8181FF33
:101090001BC082FF0DC02E813F818C819D8128174E
:1010A000390764F4E881F9810193F983E88306C084
:1010B000E885F985802F0995892B31F48E819F81F0
:1010C00001969F838E8302C00FEF1FEFC801DF914F
:1010D000CF911F910F910895FA01AA27283051F15D
:1010E000203181F1E8946F936E7F6E5F7F4F8F4F59
:1010F0009F4FAF4FB1E03ED0B4E03CD0670F781FB8
:10110000891F9A1FA11D680F791F8A1F911DA11D9C
:101110006A0F711D811D911DA11D20D009F46894D5
:101120003F912AE0269F11243019305D3193DEF67D
:10113000CF010895462F4770405D4193B3E00FD033
:10114000C9F7F6CF462F4F70405D4A3318F0495D1E
:1011500031FD4052419302D0A9F7EACFB4E0A69501
:101160009795879577956795BA95C9F70097610523
:10117000710508959B01AC010A2E06945795479579
:1011800037952795BA95C9F7620F731F841F951F6E
:10119000A01D08952F923F924F925F926F927F927F
:1011A0008F929F92AF92BF92CF92DF92EF92FF9277
:1011B0000F931F93CF93DF93CDB7DEB7CA1BDB0B23
:1011C0000FB6F894DEBF0FBECDBF09942A883988C8
:1011D00048885F846E847D848C849B84AA84B984CF
:1011E000C884DF80EE80FD800C811B81AA81B981DB
:1011F000CE0FD11D0FB6F894DEBF0FBECDBFED01EF
:061200000895F894FFCFF1
:101206000F2B41002D5600253032642C2564003CFE
:1012160020534F485200C0C1C2C3C4C5A8C6C7C8E0
:10122600C9CACBCCCDCE00CFD0D1D2D3D4D5D6D788
:10123600D8D9DADBDCDDDE002B20545552424F00D4
:101246004D454E55203E005441494D455220524190
:10125600424F544100555354414E4F564B41203E48
:10126600005441494D455220504155534100544187
:10127600494D4552204E32005241424F544120536F
:1012860043484554005041555A412053434845541C
:1012960000253032642C2564520005FA000A03202A
:0612A600003C0100000005
:00000001FF
